:020000040005F5
:2060000000400120A96A0500D76A0500336705009B6805009B6805009B680500000000000A
:206020000000000000000000000000009B6805009B680500000000009B6805009B68050040
:206040009B6805009B6805009B6805009B6805009B6805009B6805009B6805009B68050000
:206060009B6805009B6805009B6805009B6805009B6805009B6805009B6805009B680500E0
:206080009B6805009B6805009B6805009B6805009B6805009B6805009B6805009B680500C0
:2060A0009B6805009B6805009B6805009B6805009B6805009B6805009B6805009B680500A0
:1860C0009B6805009B6805009B6805009B6805009B6805009B68050098
:2060D8002DE9FC474548464C006800F00F008002206000F0F5F8002879D0221D00200A21EF
:2060F800924600F07FFB04F10E020A209146014600F078FB9AF80000FE2866D1D9F80500D1
:20611800B0F5AC2F3FD841F2010200F5805120F0030800258A4208F580581FD8C01C4FF4DD
:2061380080568708304604216A4600F05BFB50B3B04507D8D4F8130010F0030F00F0030393
:2061580001D107E00423694611F8010B5B1E80EA0505F9D17F1E06F10406E3D1E07D854256
:2061780011D100F087F9E57DB4F811706573D4F81360A4F80770B4F80F10C4F80960A07BF1
:20619800A4F8051000E0FF20207120208DF8040000F0F8FA88B900F02BFC70B900208DF8D5
:2061B80005008DF806008DF8070000F079FC01A8042100F005FC00F083FC0020514600F071
:2061D80041FA0A20494600F03DFA00F0FFF9002000F07CFC0020BDE8FC87C0463024034037
:2061F800000300202DE9F04180463348334C08384168890806D2016804F14902090C41F01C
:20621800F001117027494FF001224FF08057C1F8042407F5F87609888568D7F8F001204F14
:20623800016828468847241FA80E03D2680E24BF02202070306842682946404690471A4857
:206258000068C0F305313970410A39BF402184F823104021E174800900F0380040F460508E
:20627800A7F85C0030688168284688470F49104A0AE0105C9478131D844299BF184410F887
:20629800010C18444078086008684B689842FCD10228EED1074901200860BDE8F081C046B5
:2062B8000EB00C4000A00C400C14005000600C40386B050094046042B44F00500D620840C8
:2062D800FEB5304D6868416906208847062000F0D9FA0128FAD16868C1694FF4A06088471E
:2062F8000127294E294C376020688008FCD36868C1694FF480708847376020688008FCD38A
:206318004FF08046706920F00F007061032737622869204904681E480022082713460090CE
:2063380030460197A0472868446C062104224FF0FF33052000903046A047706840F0020036
:2063580070602869026902A9304690470028F8D12868C16B072088472868C16B38468847B5
:2063780000F0AEFB0C494FF48070086000F062FA041C02D100F02AF902E000F0CFF9044646
:206398002046FEBDB4010010282008602820084000093D00006CDC02902002402A4AB0B564
:2063B800D2F87C42B4F1FF3F08BF002400F036FB042847D1D2F878021268070F02F0FF0243
:2063D8007F2A88BF002200F029FB4FF0FF3104280AD13846012835D9801E03D0401E03D1B1
:2063F800153200E00B3251B214292BDB2048174F0025103805603868806C80471448006824
:2064180020B1144800682046FFF7ECFE124813490560134F0A686FF35B4247EA0200086000
:2064380010490868C0F30130012806D10A680E48104040F400320A6008600C49086800285A
:20645800FCD1B0BDFEE7C046A0100050F001001080012843800520438C210840482003408A
:206478000000390128000940EFFFFCFC0C006842940460422B482DE9F04F0268D0F8137006
:20649800ADF5827D781EB0FBF2F02A2847D8B7FBF2F1B7FBF2F05143C0B27E1A1CBF401CB1
:2064B800C0B24FF480590024D0B1DFF87CB0A0460646454600F04EFA40901C483038006895
:2064D80041696803884782464098CBF8008000F0D1FA5FFA8AF010BB761E05F10105E9D13A
:2064F800201C1CD1DFB14FF48075BD4288BFBDB248466A46294600F075F980B100F02AFA8E
:2065180080462A462146684600F098FA0646404600F0B0FA1EB97F1BA9442C44E5D141B0B5
:20653800BDE8F08F0003002084046042D8010010002A4AD05FEA000C8B071CD1830722D154
:20655800102A08D370B4103A78C978C0103AFBD270BC103238D0042A2CD3082A05D30C2A2D
:2065780024BF08C908C008C908C008C908C092072AD0920F22E00B780370491C401C521EF8
:2065980022D08B07F7D1C30714D18307D8D0121F12D308C903801B0C4380001D121FF8D24A
:2065B8000AE008C903701B0A43701B0A83701B0AC370001D121FF4D2121D05D00B7803703F
:2065D800491C401C521EF9D160467047F8B5B9208DF8000000F064FA0121684600F0F0F949
:2065F80000F06EFA0A2400F099F8002818BFB4F10104F8D14FF0805000F5DC75D0F8B80134
:20661800016A4FF48070884701270C4E0C4C376020688008FCD32868016A4FF4A060884798
:20663800376020688008FCD32868816906208847062000F027F90228FAD1F8BD28200860CD
:20665800282008402DE9FC410F4605460A264FF0020800F097F850BB00F0CAF938BB05F001
:20667800FF04C4F58074B44288BF341C8DF800808DF80350280C8DF80100280A8DF8020075
:2066980000F00EFA6846042100F09AF9361B2D1920B93846214600F093F918B100F010FA00
:2066B800BDE8FC8100F00CFA3F19002ED1D1BDE8FC81F8B5844640F6FF741CF8013B0022CE
:2066D80010E0481B401E10F8015B7F1E01F8015BF9D103E01CF8010B01F8010B521C5B08F8
:2066F800082AEADA5808F5D21CF8010B1CF8015B05F00F07FF1CC5F30315122F45EA00155A
:2067180008D11CF8016B300A24BF1CF8010B60F3DF16BF19AC42D4D1F8BDFEE7BCB5184DA8
:20673800D5F80200009000F0BBF90421684600F047F9F0B9114C0221204600F0EBF8024691
:2067580000F0BEF9BAB905F10800214607683FB102790B789A420AD142794B789A4206D15D
:2067780048600068002100B101210846BCBD0830ECE700F0A5F90020BCBDC04618030020C3
:20679800F86A05001FB5154800788DF8040000F087F9134C2068026969464FF08040904701
:2067B8000028F7D100F08CF900F07AF901A8012100F006F902A8012100F0ACF8024600F0A7
:2067D8007FF9002A18BF6FF0010004D19DF808004008E9D2002000901FBDC046F86A05005A
:2067F800C40100107CB515460E460446FFF7CAFF98B903208DF800008DF80340230C8DF84E
:206818000130200A8DF8020000F04AF96846042100F0D6F818B100F053F900207CBD2846EE
:20683800314600F077F8024600F04AF9002002B901207CBD1CB5AB208DF8020000F030F97E
:2068580001210DF1020000F0BBF8002400B9012400F036F99CB14FF4C870ADF80000BDF818
:20687800000004E0BDF80000401EADF80000BDF800000028F6D1FFF785FF00B1002420460B
:206898001CBDFEE71149C8B570310A684E6D410806D302F0010106F0040600270E4300D01F
:2068B8000127810805D3002117B1930828BF01210F46C00805D3002017B1D10828BF0120EC
:2068D8000746002F14BF01200220C8BDD0200840B0B50C480C4DA84210D00C480C4CA042E7
:2068F8000CD0001B083CC71054F8080F017855F821206168401C90477F1EF5D100BF00BF27
:20691800B0BDC0464C6B0500406B0500706B0500606B0500BCB50F1C054617D00C4C206822
:20693800826800214FF080409047002808BF4FF0FF300CD02068C26869464FF080409047EE
:206958009DF800007F1E05F8010BE8D10020BCBDC4010010B0B54FF0805000F5EC74D0F82C
:20697800D801094D816828468847C7B257B1206842680021284690472068816828468847E3
:206998000028F9D13846B0BD004003400B4880F308880949086840F47000086000BF00BFDD
:2069B80000F09AF808B1FFF793FF0020FFF788FB012000F093F8C04688ED00E0004001200B
:2069D8007CB50C1C06460FD0084D286816F8011B42684FF0804090472868C26869464FF0E4
:2069F80080409047641EF0D100207CBDC4010010094808B500788DF8000000F051F8012111
:206A18006846FFF7DDFF024600F05AF8002A14BF6FF00200002008BDF96A050006480C301F
:206A380000684BF641310001B1EB104F14BF4FF0FF3004207047C0460C13005008B5054B89
:206A5800303B1B689B699847014A0021116008BD84046042D8010010D0F80300401EB0F1CE
:206A7800FF3F06D00022401E01F8012BB0F1FF3FF9D1704708B528B10348006842680348A7
:206A98000121904708BDC046D80100100040034008B5FFF783FCFFF779BFFFF73EFE08BD57
:206AB80002488021103001607047C04690200240D0F80320C31D08461946FFF739BDFEE73A
:206AD80001498020086070479020024008B5D0F800D04068804708BD0120704700BFFEE79E
:206AF800050690FFFF00000000002000C215000000001000C214000000000800EF120000FF
:206B180000000400EF110000000080001F160000000010001F130000000000000000000062
:086B3800010200030200010349
:206B4000CB660500C96A0500716A05000000000002000000180000000001000004FFF000D9
:106B6000506B050000030020586B0500180300203F
:207FA80000008001100080FFFDFF58003A12B9F3FFFFFFFFFFFFFFFFFFFFFFFFFFFFFFFF6D
:207FC800FFFFFFFFFFFFFFFFFFFFFFFFFFFFFFFFFFFFFF00FFFFFFFF00FFFFFF00C5C5FF2A
:187FE800000000FF00600500FFFFFFFFFFFFFFFFFFFFFFFFFFFFFFFF2D
:00000001FF
